:100000000C9462000C948A000C948A000C948A0070
:100010000C948A000C948A000C948A000C948A0038
:100020000C948A000C948A000C948A000C948A0028
:100030000C948A000C948A000C948A000C948A0018
:100040000C948C030C948A000C945A030C94340383
:100050000C948A000C948A000C948A000C948A00F8
:100060000C948A000C948A000000000024002700F1
:100070002A0000000000250028002B0000000000DE
:1000800023002600290004040404040404040202DA
:100090000202020203030303030301020408102007
:1000A0004080010204081020010204081020000012
:1000B0000008000201000003040700000000000027
:1000C0000000D60311241FBECFEFD4E0DEBFCDBFAA
:1000D00011E0A0E0B1E0E4E2FFE002C005900D9283
:1000E000A833B107D9F722E0A8E3B1E001C01D921F
:1000F000A830B207E1F710E0C2E6D0E004C02197D3
:10010000FE010E948A07C136D107C9F70E943A044E
:100110000C9490070C940000FC01538D448D252F06
:1001200030E0842F90E0821B930B541710F0CF9691
:10013000089501970895FC01918D828D981761F0C3
:10014000A28DAE0FBF2FB11D5D968C91928D9F5FDA
:100150009F73928F90E008958FEF9FEF0895FC01B9
:10016000918D828D981731F0828DE80FF11D858D6C
:1001700090E008958FEF9FEF0895FC01918D228DFF
:10018000892F90E0805C9F4F821B91098F73992784
:100190000895FC01A48DA80FB92FB11DA35ABF4F1C
:1001A0002C91848D90E001968F739927848FA68976
:1001B000B7892C93A089B1898C91837080648C93CA
:1001C000938D848D981306C00288F389E02D808179
:1001D0008F7D80830895EF92FF920F931F93CF93AB
:1001E000DF93EC0181E0888F9B8D8C8D98131AC072
:1001F000E889F989808185FF15C09FB7F894EE8959
:10020000FF896083E889F9898081837080648083B5
:100210009FBF81E090E0DF91CF911F910F91FF9000
:10022000EF900895F62E0B8D10E00F5F1F4F0F73A8
:100230001127E02E8C8D8E110CC00FB607FCFACF63
:10024000E889F989808185FFF5CFCE010E94C90038
:10025000F1CFEB8DEC0FFD2FF11DE35AFF4FF08234
:100260009FB7F8940B8FEA89FB8980818062CFCF9A
:10027000CF93DF93EC01888D8823B9F0AA89BB89DD
:10028000E889F9898C9185FD03C0808186FD0DC0C8
:100290000FB607FCF7CF8C9185FFF2CF808185FFE9
:1002A000EDCFCE010E94C900E9CFDF91CF91089533
:1002B00085E591E00E94BD0021E0892B09F420E052
:1002C000822F089580E090E0892B29F00E94580148
:1002D00081110C9400000895AF92BF92CF92DF92EB
:1002E000EF92FF920F931F93CF93DF936C017B01EB
:1002F0008B01040F151FEB015E01AE18BF08C0177C
:10030000D10759F06991D601ED91FC910190F081EE
:10031000E02DC6010995892B79F7C501DF91CF91B1
:100320001F910F91FF90EF90DF90CF90BF90AF9013
:100330000895833081F028F4813099F08230A9F05B
:1003400008958730A9F08830C9F08430B1F48091E5
:1003500080008F7D03C0809180008F778093800024
:10036000089584B58F7784BD089584B58F7DFBCFC4
:100370008091B0008F778093B00008958091B00095
:100380008F7DF9CFCF93DF93282F30E0F901E2552D
:10039000FF4F8491F901E656FF4FD491F901EA57D6
:1003A000FF4FC491CC23A1F081110E949901EC2F41
:1003B000F0E0EE0FFF1FE458FF4FA591B491EC91D0
:1003C000ED2381E090E009F480E0DF91CF91089582
:1003D00080E090E0FACF1F93CF93DF93282F30E097
:1003E000F901E255FF4F8491F901E656FF4FD49190
:1003F000F901EA57FF4FC491CC23A9F0162F8111C0
:100400000E949901EC2FF0E0EE0FFF1FEE58FF4F16
:10041000A591B4918FB7F894EC91111108C0D095C3
:10042000DE23DC938FBFDF91CF911F910895DE2BE8
:10043000F8CFCF93DF93CFEFD1E060E08D810E94C2
:10044000EB0160E08E810E94EB0161E08D810E94F2
:10045000EB0161E08E81DF91CF910C94EB01CF93A2
:10046000DF93CFEFD1E061E08E810E94EB0160E08D
:100470008E810E94EB0160E08D81DF91CF910C9421
:10048000EB01CF93DF9390E0FC01E656FF4F249100
:100490008A579F4FFC0184918823C9F090E0880F10
:1004A000991FFC01E859FF4FA591B491FC01EE584A
:1004B000FF4FC591D49161110DC09FB7F8948C91F5
:1004C000209582238C938881282328839FBFDF91E6
:1004D000CF910895623051F49FB7F8943C91822FE8
:1004E000809583238C93E8812E2BEFCF8FB7F894E0
:1004F000EC912E2B2C938FBFEACFCF92DF92FF92FD
:100500000F931F93CF93DF93D82FC8E097E0C92EA6
:10051000D12C60E0809104020E94EB010D2F0D2E82
:10052000000C110B61E0D0FF60E0809105020E9499
:10053000EB01C6010197F1F715950795D02F61E002
:10054000809104020E94EB01C6010197F1F7C150AE
:1005500001F760E0809104020E94EB0161E080916C
:1005600005020E94EB0161E0809104020E94EB0110
:1005700060E0809105020E944102809105020E9484
:10058000C201892B71F0F3948091050298ECF91265
:1005900014C061E00E94410260E0809105020E9467
:1005A000EB0161E080910502DF91CF911F910F91E6
:1005B000FF90DF90CF900C94410260E0DCCFCF93AE
:1005C000DF93D82F80910202C0E08111C0E80E9421
:1005D0002F0284E40E947D020E9419020E942F02D1
:1005E0008D2F806C0E947D028C2F0E947D020E94C4
:1005F00019020E942F02809101020E947D02DF9168
:10060000CF910C9419023FB7F89480913D019091DD
:100610003E01A0913F01B091400126B5A89B05C0C5
:100620002F3F19F00196A11DB11D3FBFBA2FA92F71
:10063000982F8827BC01CD01620F711D811D911D6E
:1006400042E0660F771F881F991F4A95D1F70895DA
:100650002FB7F8946091390170913A0180913B0174
:1006600090913C012FBF08951F920F920FB60F92E9
:1006700011242F933F934F935F936F937F938F93A7
:100680009F93AF93BF93EF93FF9385E591E00E9413
:10069000C900FF91EF91BF91AF919F918F917F9191
:1006A0006F915F914F913F912F910F900FBE0F90DF
:1006B0001F9018951F920F920FB60F9211242F932F
:1006C0008F939F93EF93FF93E0916501F091660103
:1006D0008081E0916B01F0916C0182FD1BC09081E3
:1006E00080916E018F5F8F7320916F01821741F0AF
:1006F000E0916E01F0E0EB5AFE4F958F80936E0112
:10070000FF91EF919F918F912F910F900FBE0F90BE
:100710001F9018958081F4CF1F920F920FB60F9201
:1007200011242F933F938F939F93AF93BF93809107
:10073000390190913A01A0913B01B0913C01309177
:10074000380123E0230F2D3758F50196A11DB11D67
:10075000209338018093390190933A01A0933B0193
:10076000B0933C0180913D0190913E01A0913F01E9
:10077000B09140010196A11DB11D80933D01909360
:100780003E01A0933F01B0934001BF91AF919F9173
:100790008F913F912F910F900FBE0F901F90189542
:1007A00026E8230F0296A11DB11DD2CF1F93CF9330
:1007B000DF93E5E5F1E01382128288EE93E0A0E09A
:1007C000B0E084839583A683B7838AE291E0918326
:1007D000808385EC90E09587848784EC90E0978710
:1007E000868780EC90E0918B808B81EC90E0938BFE
:1007F000828B82EC90E0958B848B86EC90E0978BDB
:10080000868B118E128E138E148ECFEFD1E013E0F3
:100810001D8382E08E8361E083E00E94410261E0FB
:100820008E810E944102C2EFD1E080E190E0998385
:10083000888381E190E09B838A8360E080E10E946D
:10084000410261E080E10E94EB0160E081E10E94F1
:10085000410261E081E10E94EB011C831D821E8246
:100860001F82188619861A861B861C86DF91CF91F7
:100870001F910895CF93DF9300D000D000D0CDB763
:10088000DEB7789484B5826084BD84B5816084BD10
:1008900085B5826085BD85B5816085BD80916E001E
:1008A000816080936E00109281008091810082604F
:1008B000809381008091810081608093810080918C
:1008C00080008160809380008091B100846080937B
:1008D000B1008091B00081608093B00080917A0077
:1008E000846080937A0080917A00826080937A009D
:1008F00080917A00816080937A0080917A0080688C
:1009000080937A001092C10080E48093FF0180EC14
:10091000809300028AE8809301021092030281E032
:100920008093070283E08093060280E00E94DF024A
:1009300081E00E94DF0282E00E94DF0283E00E94E9
:10094000DF0262E087E00E94410260E085E00E94F1
:10095000410261E084E00E94410261E086E00E9481
:10096000410261E08DE00E94410260E08DE00E9462
:10097000EB0160E084E00E94EB0160E086E00E9411
:10098000EB0190E080E00E944C07898381E090E0D9
:100990000E944C078A8389819A819C0125503109E4
:1009A00024363E4208F05CC090930301809302011C
:1009B000909301018093000168E7A62EB12CCE012F
:1009C00005969E838D8377E0672E712CE8E68E2E48
:1009D000EEE29E2E0E9428030091460110914701ED
:1009E0002091480130914901601B710B820B930BE0
:1009F000633371058105910598F04F9907C0809187
:100A000045018F5F8B30A8F5809345010E94280334
:100A10006093460170934701809348019093490188
:100A200080914501882309F450C14F9B4EC10E941B
:100A3000280300914101109142012091430130911E
:100A40004401601B710B820B930B653F7140810564
:100A5000910508F43AC1109245015524539417C0EA
:100A60008091000190910101909303018093020114
:100A7000A3CF109245010E94280360934101709317
:100A80004201809343019093440154E0552E5092CB
:100A9000540180910201909103011816190624F067
:100AA00061E086E00E94EB0185E00E94C201892B93
:100AB00009F410C161E08DE00E94EB01809100011A
:100AC0009091010190930301809302010091020132
:100AD00010910301C80164E170E00E94620797FD74
:100AE00001969C013595279520935301C801B501C6
:100AF0000E94620764E170E00E946207362F6093F3
:100B00005201C80160EB74E00E946207462FB501F4
:100B10000E946207609351014093500149836A83A8
:100B20003B832C838091020290E8811101C090E008
:100B3000FE0131966F017F01D701EC91EF3709F08B
:100B4000CEC01C92FFEFEF1AFF0A2D813E812E15B9
:100B50003F0591F780910302813069F4E09106022C
:100B6000E33049F0EC0DFD2DF11D8081805880832C
:100B700033E0309306020E942F0280E40E947D023F
:100B80000E9419020E942F02809100020E947D02A1
:100B9000D6018D916D010E947D02EC14FD04C1F718
:100BA0000E9419020E942F02809101020E947D0280
:100BB0000E9419028091F2010E94C201F82E8091D8
:100BC000F4010E94C201880F991F8F29E091F6015C
:100BD0008E17C9F1B4E0EB02F0011124282F082E82
:100BE000000C330BE22BF32BEC5FFE4F4081042E05
:100BF000000C550B660B770BC090F701D090F801F5
:100C0000E090F901F090FA014C0D5D1D6E1D7F1D05
:100C10004093F7015093F8016093F9017093FA0142
:100C2000833079F492E075956795579547959A9535
:100C3000D1F74093FB015093FC016093FD01709349
:100C4000FE018093F601E090FB01F090FC010F3E65
:100C5000110599F00737110581F00736E1E01E070D
:100C600061F0C8018D7F409741F0C801897F0897E6
:100C700021F0C80101970697E0F561E084E00E9449
:100C8000EB0180914E0190914F01E816F906C4F5F1
:100C9000085711091093030100930201F0924F01CC
:100CA000E0924E01809102019091030189362EE27B
:100CB00092070CF4D3C0909201018092000134E0BD
:100CC00053127BC008E61EE235C04F9910924501D1
:100CD000512CDDCE60E08DE00E94EB01F7CE0E2EB0
:100CE000000CFF0BEC5EFE4F8081890FF7018083C3
:100CF00029CF84E00E94C201892B19F260E0BECFA7
:100D00008E159F051CF408581F4FC4CFE816F9062E
:100D100029F6F4E05F1251C0009100011091010129
:100D2000C801B5010E946207081B190B10161106B5
:100D30000CF0A3C090E080E00E944C07081729F057
:100D4000602F90E080E00E94540781E090E00E94D4
:100D50004C07181729F0612F81E090E00E9454079A
:100D600061E084E00E94EB010E9403031B012C015F
:100D70008CE2C82EDD24D394E12CF12C0E940303D5
:100D80006219730984099509683E734081059105CC
:100D9000A8F381E0C81AD108E108F10898EE290EFD
:100DA00093E0391E411C511CC114D104E104F1042B
:100DB00029F760E084E00E94EB01809154018130CA
:100DC00021F470920301609202010E9428030091B5
:100DD0004A0110914B0120914C0130914D01601B53
:100DE000710B820B930B633F714081059105E8F015
:100DF00000910201109103010E94280360934A01AF
:100E000070934B0180934C0190934D010150110957
:100E100010930301009302018091030200FF30C090
:100E2000811103C0E1E0E093020280910201909100
:100E300003018936FEE29F0744F1909203018092FC
:100E4000020120E030E0232B09F4C4CD0E945801B8
:100E5000882309F4BFCD0E940000BCCD87309105E6
:100E60002CF0909301018093000153CF7092010107
:100E70006092000144E05412A0CF08E710E05ACF7E
:100E80008111D3CF10920202D0CF97FFDACF109208
:100E9000030110920201D5CFF999FECF92BD81BD19
:100EA000F89A992780B50895262FF999FECF1FBA91
:100EB00092BD81BD20BD0FB6F894FA9AF99A0FBE83
:100EC0000196089597FB072E16F4009407D077FD3E
:100ED00009D00E94760707FC05D03EF490958195D5
:100EE0009F4F0895709561957F4F0895AA1BBB1B76
:100EF00051E107C0AA1FBB1FA617B70710F0A61B1A
:100F0000B70B881F991F5A95A9F780959095BC013A
:100F1000CD010895EE0FFF1F0590F491E02D099487
:040F2000F894FFCF73
:100F24001815760000FF0100010000FFFF0000011A
:100F34000001FF003F065B4F666D7D077F6F777C86
:100F4400395E7971400000000000EB006C018C00F8
:080F54003801BD009B00AF0055
:00000001FF
